:100000000C9434000C943E000C943E000C943E0082
:100010000C943E000C943E000C943E000C943E0068
:100020000C943E000C943E000C943E000C943E0058
:100030000C943E000C943E000C943E000C943E0048
:100040000C943E000C943E000C943E000C943E0038
:100050000C943E000C943E000C943E000C943E0028
:100060000C943E000C943E0011241FBECFEFD8E04C
:10007000DEBFCDBF0E9455000C947B000C940000A5
:10008000299A2FEF83EC99E0215080409040E1F7CE
:1000900000C0000029982FEF83EC99E021508040A8
:1000A0009040E1F700C000000895219A8AEA889400
:1000B0007894299A2998FDCF0000000000000000E4
:1000C0000E9440000E9440000E944000299A2FEFA9
:1000D00083ED90E3215080409040E1F700C00000A4
:1000E00029982FEF83ED90E3215080409040E1F775
:0A00F00000C00000DBCFF894FFCF42
:00000001FF
